:0E0000003FC06DC071C0FCCFFBCFFACFF9CF6F
:10000E00F8CFF7CFF6CFF5CFF4CFF3CFF2CFF1CFC6
:10001E00F0CFEFCFEECFEDCF1027E80364000A004C
:10002E000100001000011000010000006265676908
:10003E006E2070726F6772616D0D0A0025732C252C
:10004E00690D0A0025730024736C6176652C2533C7
:10005E00642C2533640D0A0024636F756E7465720B
:10006E002C25692C25690D0A0000010002003800BC
:10007E000000F894EE27ECBBF1E0FBBFEBBFE5BF51
:10008E00F8E1F1BDE1BD8DE0A2E0BB27ED938A95CD
:10009E00E9F780E094E0A0E6ED930197E9F7E8E751
:1000AE00F0E085919591009761F0A591B59105903D
:1000BE001590BF01F00105900D920197E1F7FB013C
:1000CE00F0CFEFE5EDBFE4E0EEBFC0E6D1E00EC04D
:1000DE00CBD3F20131962F0104C0C6D3F301319672
:1000EE003F01E991EFBFF991E9911895E0E0E8BB86
:1000FE00EEE0E7BBEFEFE5BBE4BBE0E0E2BBE1BB6C
:10010E00E3BFE2BFE1EAEFBDE9E0EEBDE0E0EDBD49
:10011E00ECBDE7BDE6BDEBBDEABDE9BDE8BDE2BDA8
:10012E00E0E3E5BDE0E0E4BDE3BDEBB7E06CEBBFC3
:10013E00EFE0E5BFE0ECEABFE0E0E9BFEBB9E8E1F4
:10014E00EAB9E6E8E0BDE0E0E0BDE7E6E9B9E0E8FF
:10015E00E8B9E0E0E0BFE6B9EDB9E6BF789489D33F
:10016E008DD387D394D3EAE3F0E09AD380E0EED137
:10017E002296E89420F821D027D0EAE4F0E093D339
:10018E00E0E020FCE1E0FF276627772793D333D00A
:10019E00F0CFFFCF94D3A89A0AC0E0E0EABDE8BD45
:1001AE00A89809C08CD3A89806C089D3A898A99AF4
:1001BE00089585D3A89AA9980895E2E5F0E073D33F
:1001CE0084E000D326960895AA24BB247FD3A432BC
:1001DE0079F4F50131965F0179D3AD3631F4882487
:1001EE009924AA24BB24689401C0E89420F802C084
:1001FE00E89420F8089520FE0AC0A0E031D03ED346
:10020E00A1E02ED044D350D0E89420F801C0C5DF31
:10021E00E5E5F0E045D3E0917401F0917501609150
:10022E00760170917701E1D3E0917801F091790137
:10023E0060917A0170917B013DD3A1E0B0E0AED325
:10024E00E6E6F0E02DD3F20166277727CED3F30151
:10025E00662777272FD344245524662477240895C0
:10026E00AA93C8D3EE81E03051F4E091680134D303
:10027E00E091690136D3E0916A0138D30EC0AE81A8
:10028E00A13051F4E0916C0127D3E0916D0129D397
:10029E00E0916E012BD301C050E0512FE52F2DD3ED
:1002AE008FD3AFD3279608952AD3A13319F42AD327
:1002BE00A13309F002C06EDF1AC021D3A03319F4A6
:1002CE0021D3A03309F002C06DDF11C018D3A133C2
:1002DE0019F418D3A03309F002C067DF08C00FD39A
:1002EE00A03319F40FD3A13309F001C062DF0895D2
:1002FE005F9BFECFECB10895AA935D9BFECFE88184
:10030E00ECB92196089501D3AA81F6DFA881B981AF
:10031E00ED91FD913196FE93EE9323960895F5D2CD
:10032E00269768D310E0AC85BD85E0E0F0E0ED9354
:10033E00FC93EA89FB893196EA8BFB8B3197E4912A
:10034E002E2FE03009F4FCC0E12FE03031F42532DD
:10035E0011F411E001C0DCD2F2C0E130A1F425327B
:10036E0011F4D6D2EBC012E040E000E02D3211F4D1
:10037E0001E0E5C02B3211F44BE2E1C0203211F462
:10038E0040E2DDC002C0E23039F450E013E0203329
:10039E0011F40068D4C003C0E33009F0D0C020339C
:1003AE0010F02A3308F007C0AAE05A9F502DE22F12
:1003BE00E0535E0FC4C0E22FE33639F4B0D2B2D2AE
:1003CE00AED2A481AA93B2D2B9C0E33729F4B4D283
:1003DE00B5D233D21E2F07C0E03749F4ADD2AED21C
:1003EE0037D21E2F086002600F7730E02DC0E43642
:1003FE0011F0E93611F4046002C0E53729F4E6E2A3
:10040E00F0E0A5D215E00BC0E83511F4086003C08A
:10041E00E83709F093C0E0E3F0E099D214E002FF70
:10042E0011C08AD297D2AB85AA2332F4EA85FB8516
:10043E00C3D2EA87FB874DE2403011F01F5F01C047
:10044E000B7F02C079D286D200FD10C0151770F452
:10045E0007FF08C002FF04C00B7F242F115001C0FC
:10046E0020E301C020E254D25150F0CF312F01FFD2
:10047E0015C0303091F003FF05C0EE81FF8125914C
:10048E0066D205C0AE81BF812D91AE83BF8340D2AF
:10049E00503009F051503150ECCF47C020E3EE817F
:1004AE00FF819FD2E887F987EE81FF8132964FD286
:1004BE00E885F985AA85BB85AE17BF0750F02F5F7B
:1004CE00A885B985EA85FB85EA1BFB0BEA87FB87C6
:1004DE00EFCF2A3328F003FF02C0295F01C0295D48
:1004EE0004FD19C0213320F4A885B985119709F4AC
:1004FE0009C0531710F000FF01C011C020E207FF22
:10050E000AC020E3006102FF06C00B7F4A930ED2A1
:10051E00503009F05150FCD1503009F0515031504B
:10052E00A885B985129708F0B9CF00FF07C05030E3
:10053E0029F05150E0E2EA93F9D1F9CF10E0F9CE6B
:10054E00AC85BD854AD25DD264960895FF92F82E91
:10055E00269754D2DE0114962BD28D01E0E0EC8367
:10056E00ED83EE83EF83DE011896FBD1EAE8F1E02E
:10057E0097D1DE011896D3DE48D22896FF900895C3
:10058E00C4D11A93A981BA81E0E0EC93AB81BC810E
:10059E00EC911E2FE03019F0E0E0EC9302C0A8DEE3
:1005AE001E2FE12F188125960895AFD1259722D2BF
:1005BE00E0E0F0E0E887F9874E2FE989FA89319675
:1005CE00E98BFA8B3197E4913E2FE03009F4F5C0B8
:1005DE00CED199F0EDB7FEB763D14F93A7D14F911E
:1005EE003E2FE03011F0C3D109F405C0C4D114F48C
:1005FE00C7D1E5C0EFCF432FDFC0353209F0C9C0F8
:10060E0050E0E989FA893591E98BFA8B303310F095
:10061E003A3308F007C0AAE05A9F502DE32FE0535B
:10062E005E0FEFCF303009F4C8C0EDB7FEB738D14A
:10063E004F937CD14F912E2FAE2FE5D0E03029F085
:10064E009AD114F49DD1BBC0F0CF203009F4ADC0C7
:10065E00422F503009F45FEFE32FE33671F493D15C
:10066E00EDB7FEB71DD14F9361D14F91D801EC93E9
:10067E0082D114F485D1A3C086C0E33711F583D19E
:10068E00E52F5150E030C9F0EDB7FEB709D14F93C9
:10069E004DD14F913E2FE03011F069D129F06BD141
:1006AE0014F46ED18CC009C01F930F930F5F1F4FB0
:1006BE00E32FAF91BF91EC93E3CFD801E0E0EC9341
:1006CE0062C0E1E0EA87E32FE43611F0E93619F46F
:1006DE00E0E0EA8702C0E53711F42AE008C0E83707
:1006EE0011F420E104C0E53209F453C066C0E0E025
:1006FE00EE83EF83E52F5150E030D1F1EDB7FEB729
:10070E00CFD04F9313D14F913E2FE13228F433D1F6
:10071E0014F436D154C015C0EA85E03039F43D32B8
:10072E0019F4EFEFEA87E6CFE1E0EA87203129F40A
:10073E00A32F74D0E03029F006C0A32F5BD0E03099
:10074E0011F4432F15C0313610F0375505C0313432
:10075E0010F0375301C03053E22FAE81BF81CDD0A0
:10076E0034D1DF01E32FC9D0EA0FFB1FF0D0C2CF87
:10077E000AD1EA85AE81BF81F0E0E7FDFFEF25D11A
:10078E00D801ED93FC93E885F9853196E887F987D2
:10079E0013C0EDB7FEB784D04F93C8D04F91E31777
:1007AE0059F0E9D014F4ECD00AC0E885F9853097F9
:1007BE0011F4E6D004C001C000CFE885F98521D13F
:1007CE0063960895FF92F82E239718D1DE011196A5
:1007DE00EFD08D01E0E0EB83EC83DE011596C1D006
:1007EE00E7ECF2E05DD0DE011896DFDE0ED1259645
:1007FE00FF900895AA93E1E0F991F03310F0FA33E7
:10080E0008F0EE270895AA93E1E0F991F03229F06D
:10081E00F93010F0FE3008F0EE270895AA93E1E0CB
:10082E00F991F05340F0FA3038F0FF75F750FA3086
:10083E0010F0F03108F0EE27089567D0A991B99124
:10084E00EE27FF276D91662311F03196FBCF0895A9
:10085E005CD0AA27BB27E991F9910590002011F0F1
:10086E001196FBCFFD010895EA93FA93EFB7EA9341
:10087E000895E0EFF0E060E070E00895E093740119
:10088E00F093750160937601709377010895E0936C
:10089E007801F093790160937A0170937B0108954A
:1008AE00FA93EA930895FCDFE0E6F1E066277727F6
:1008BE009CD008959AD088E049DE2A960895E0915A
:1008CE007801EABDE0917401E8BD0895A0E6B1E0BB
:1008DE00AA0DBB1DAC910895E053A4E6EA02002DCB
:1008EE000895E053AAE0EA02302D0895E0532E2F2A
:1008FE00E32FE00FE20F1E2F0895F0E00895A09170
:10090E0070010895A09172010895BA93AA93089563
:10091E002A93AD85BE85EF85F88909950895E889F6
:10092E00F98908953497E88BF98B0895AD85BE85C6
:10093E00EF85F88909950895F2DFF4CFA889B98972
:10094E0014964BD0EE83FF83AE81BF810895EE8364
:10095E00FF830895A889B98914963FD0EA87FB874B
:10096E00089526D03AD09CDF1A930A930895A32FA8
:10097E004ADFE0300895AB85BC85AC91A030089578
:10098E00EFEFFFEF0895EF85F8893497EF87F88B37
:10099E00AF85B88914960D911C910895109639F073
:1009AE0080EA9FE00197F1F7A8951197C9F708958E
:1009BE000024AF0DB01D0895F195E195F040089516
:1009CE006F2F660F660B762F0895FA9FF02DEB9F13
:1009DE00F00DEA9FE02DF10D0895ED91FC91119728
:1009EE0008950590F491E02D08957A936A93FA9301
:1009FE00EA9308955A934A933A932A931A930A9331
:100A0E0008955D814C813B812A8119810881089569
:00000001FF
