:0A0000002FC0FECFFDCFFCCFFBCFD9
:10000A00FACFF9CFF8CFF7CFF6CFF5CFF4CFF3CFBA
:10001A00F2CFF1CFF0CFEFCFEECFEDCF1027E8033D
:10002A0064000A0001000010000110000100000035
:10003A0025730025730D0A0064617461204F4B0D0E
:10004A000A0064617461206E6F74204F4B000100D6
:10005A00020038000000F894EE27ECBBF1E0FBBF89
:10006A00EBBFE5BFF8E1F1BDE1BD8DE0A2E0BB2742
:10007A00ED938A95E9F780E094E0A0E6ED93019785
:10008A00E9F7E8E5F0E085919591009761F0A5918F
:10009A00B59105901590BF01F00105900D92019759
:1000AA00E1F7FB01F0CFEFE5EDBFE4E0EEBFC0E61C
:1000BA00D1E000C0E0E0E8BBE6E0E7BBE0E0E5BB9A
:1000CA00E4BBE2BBE1BBE3BFE2BFE1EAEFBDE1E0D3
:1000DA00EEBDE0E0EDBDECBDE7BDE6BDEBBDEABDC2
:1000EA00E9BDE8BDE2BDE5BDE4BDE3BDE5BFE9BFED
:1000FA00EBB9E8E1EAB9E6E8E0BDE0E0E0BDE7E651
:10010A00E9B9E0E8E8B9E0E0E0BFE6B9EDB9E6BF91
:10011A00EAE3F0E0D4D281D22696EDE3F0E0CFD242
:10012A003FD12696A0916001A43219F4E2E4F0E0EE
:10013A0002C0ECE4F0E0FA93EA9380E031D122962F
:10014A00E7CFFFCF5F9BFECFECB10895AA935D9BEB
:10015A00FECFE881ECB921960895BAD2AA81F6DFDA
:10016A00A881B981ED91FD913196FE93EE93239684
:10017A000895AED2269716D310E0AC85BD85E0E08F
:10018A00F0E0ED93FC93EA89FB893196EA8BFB8BCD
:10019A003197E4912E2FE03009F4FCC0E12FE030D2
:1001AA0031F4253211F411E001C095D2F2C0E130E8
:1001BA00A1F4253211F48FD2EBC012E040E000E046
:1001CA002D3211F401E0E5C02B3211F44BE2E1C00B
:1001DA00203211F440E2DDC002C0E23039F450E0CE
:1001EA0013E0203311F40068D4C003C0E33009F0EF
:1001FA00D0C0203310F02A3308F007C0AAE05A9F73
:10020A00502DE22FE0535E0FC4C0E22FE33639F4DB
:10021A0069D26BD267D2A481AA936BD2B9C0E337F1
:10022A0029F46DD26ED234D21E2F07C0E03749F4BA
:10023A0066D267D238D21E2F086002600F7730E08C
:10024A002DC0E43611F0E93611F4046002C0E53736
:10025A0029F4E6E2F0E05ED215E00BC0E83511F4CD
:10026A00086003C0E83709F093C0E0E3F0E052D237
:10027A0014E002FF11C043D250D2AB85AA2332F454
:10028A00EA85FB8576D2EA87FB874DE2403011F09A
:10029A001F5F01C00B7F02C032D23FD200FD10C0E7
:1002AA00151770F407FF08C002FF04C00B7F242F44
:1002BA00115001C020E301C020E20DD25150F0CF0D
:1002CA00312F01FF15C0303091F003FF05C0EE81D8
:1002DA00FF8125911FD205C0AE81BF812D91AE83CA
:1002EA00BF83F9D1503009F051503150ECCF47C09B
:1002FA0020E3EE81FF814DD2E887F987EE81FF8105
:10030A00329608D2E885F985AA85BB85AE17BF075C
:10031A0050F02F5FA885B985EA85FB85EA1BFB0BA0
:10032A00EA87FB87EFCF2A3328F003FF02C0295F51
:10033A0001C0295D04FD19C0213320F4A885B985BF
:10034A00119709F409C0531710F000FF01C011C03A
:10035A0020E207FF0AC020E3006102FF06C00B7F0C
:10036A004A93C7D1503009F05150B5D1503009F0F5
:10037A0051503150A885B985129708F0B9CF00FFBE
:10038A0007C0503029F05150E0E2EA93B2D1F9CFD8
:10039A0010E0F9CEAC85BD85F8D10BD264960895EC
:1003AA00FF92F82E269702D2DE011496DED18D0135
:1003BA00E0E0EC83ED83EE83EF83DE011896B4D19F
:1003CA00E2EBF0E0B8D1DE011896D3DEF6D128963A
:1003DA00FF9008957DD11A93A981BA81E0E0EC9348
:1003EA00AB81BC81EC911E2FE03019F0E0E0EC9378
:1003FA0002C0A8DE1E2FE12F18812596089568D124
:10040A002597D0D1E0E0F0E0E887F9874E2FE98917
:10041A00FA893196E98BFA8B3197E4913E2FE030D5
:10042A0009F4F6C08BD199F0EDB7FEB784D14F939A
:10043A0060D14F913E2FE03011F080D109F405C010
:10044A0081D114F484D1E6C0EFCF432FE0C0353216
:10045A0009F0CAC050E0E989FA893591E98BFA8B2B
:10046A00303310F03A3308F007C0AAE05A9F502DF3
:10047A00E32FE0535E0FEFCF303009F4C9C0EDB778
:10048A00FEB759D14F9335D14F912E2FAE2FE6D0CB
:10049A00E03029F057D114F45AD1BCC0F0CF203043
:1004AA0009F4AEC0422F503009F45FEFE32FE33670
:1004BA0071F450D1EDB7FEB73ED14F931AD14F9197
:1004CA00D801EC933FD114F442D1A4C087C0E337DA
:1004DA0011F540D1E52F5150E030C9F0EDB7FEB724
:1004EA002AD14F9306D14F913E2FE03011F026D1F9
:1004FA0029F028D114F42BD18DC009C01F930F9372
:10050A000F5F1F4FE32FAF91BF91EC93E3CFD80159
:10051A00E0E0EC9363C0E1E0EA87E32FE43611F010
:10052A00E93619F4E0E0EA8702C0E53711F42AE077
:10053A0008C0E83711F420E104C0E53209F454C0D8
:10054A0067C0E0E0EE83EF83E52F5150E03009F415
:10055A003AC0EDB7FEB7EFD04F93CBD04F913E2FB5
:10056A00E13228F4EFD014F4F2D054C015C0EA8571
:10057A00E03039F43D3219F4EFEFEA87E5CFE1E0F4
:10058A00EA87203129F4A32F74D0E03029F006C07D
:10059A00A32F5BD0E03011F4432F15C0313610F091
:1005AA00375505C0313410F0375301C03053E22FAC
:1005BA00AE81BF81F0E0E1D0DF01E32FF0E0EA0F86
:1005CA00FB1FA8D0C1CFC6D0EA85AE81BF81F0E0BB
:1005DA00E7FDFFEFD2D0D801ED93FC93E885F985CA
:1005EA003196E887F98713C0EDB7FEB7A4D04F93C9
:1005FA0080D04F91E31759F0A5D014F4A8D00AC0BF
:10060A00E885F985309711F4A2D004C001C0FFCE65
:10061A00E885F985CED063960895FF92F82E239740
:10062A00C5D0DE011196A1D08D01E0E0EB83EC8309
:10063A00DE01159679D0EFEEF1E07DD0DE01189655
:10064A00DEDEBBD02596FF900895AA93E1E0F991EA
:10065A00F03310F0FA3308F0EE270895AA93E1E098
:10066A00F991F03229F0F93010F0FE3008F0EE2757
:10067A000895AA93E1E0F991F05340F0FA3038F086
:10068A00FF75F750FA3010F0F03108F0EE270895B0
:10069A001FD0A991B991EE27FF276D91662311F01A
:1006AA003196FBCF089514D0AA27BB27E991F99177
:1006BA000590002011F01196FBCFFD010895FA93E1
:1006CA00EA93E0E6F1E06627772767D084E00895A9
:1006DA00BA93AA9308952A93AD85BE85EF85F889C2
:1006EA0009950895E889F98908953497E88BF98B73
:1006FA000895AD85BE85EF85F88909950895F2DFDD
:10070A00F4CFA889B989149640D0EE83FF83AE81CD
:10071A00BF810895EE83FF830895A889B989149645
:10072A0034D0EA87FB87089520D02FD0FA93EA9332
:10073A001A930A930895FA93EA930895A32F8EDFE2
:10074A00E0300895AB85BC85AC91A0300895EFEFF9
:10075A00FFEF0895EF85F8893497EF87F88BAF8517
:10076A00B88914960D911C9108950024AF0DB01DFF
:10077A000895F195E195F0400895FA9FF02DEB9FC9
:10078A00F00DEA9FE02DF10D0895ED91FC9111977E
:10079A0008950590F491E02D08957A936A93FA9357
:1007AA00EA9308955A934A933A932A931A930A9387
:1007BA0008955D814C813B812A81198108810895C0
:00000001FF
